:020000040800F2
:1000000000500020313400083D380008493800080D
:100010004F380008553800085B3800080000000021
:100020000000000000000000000000006D38000823
:1000300061380008000000007938000885380008A1
:10004000913800089D380008A9380008B538000824
:10005000C1380008CD380008D9380008E538000854
:10006000F1380008FD380008093900081539000882
:10007000213900082D3900083939000845390008B0
:10008000513900085D3900086939000875390008E0
:10009000813900088D39000899390008A539000810
:1000A000B1390008BD390008C9390008D539000840
:1000B000E1390008ED390008F9390008053A00086F
:1000C000113A00081D3A0008293A0008353A00089C
:1000D000413A00084D3A0008593A0008653A0008CC
:1000E000713A00087D3A0008893A000800000000D3
:1000F0000000000000000000000000000000000000
:0C01000000000000000000005FF800009C
:10010C0080B483B000AF7860084A084B1B6803F0DA
:10011C00380313600549054B1A687B6813430B6061
:10012C0000BF0C37BD4680BC704700BF00200240AA
:10013C0080B483B000AF7860084A084B1B6823F08A
:10014C00080313600549054B1A687B6813430B6061
:10015C0000BF0C37BD4680BC704700BF002002407A
:10016C0080B483B000AF7860084A084B1B6823F05A
:10017C00100313600549054B1A687B6813430B6029
:10018C0000BF0C37BD4680BC704700BF002002404A
:10019C0080B582B000AF78603B1D1B68224A934249
:1001AC0022D0214A934206D8204A93420AD0204AB0
:1001BC00934210D033E01F4A93421ED01E4A934202
:1001CC0024D02CE00121042001F058F90021042056
:1001DC0001F054F923E00121082001F04FF900212E
:1001EC00082001F04BF91AE00121102001F046F92A
:1001FC000021102001F042F911E00121202001F032
:10020C003DF90021202001F039F908E001214020BE
:10021C0001F034F90021402001F030F900BF00BF9B
:10022C000837BD4680BD00BF0010014000080140EA
:10023C00000C0140001401400018014080B500AFD3
:10024C000121012001F01AF90021012001F016F919
:10025C0000BF80BD80B489B000AF786039600023E6
:10026C00FB6100233B610023BB610023FB60002387
:10027C007B610023BB603B68DB7803F00F03FB6101
:10028C003B68DB7803F01003002B05D03B689B78B0
:10029C001A46FB691343FB613B681B88DBB2002BDE
:1002AC0045D07B681B687B610023BB6137E0012272
:1002BC00BB6902FA03F3FB603B681B881A46FB68B8
:1002CC0013403B613A69FB689A4225D1BB699B009C
:1002DC00FB600F22FB6802FA03F3BB60BB68DB43D5
:1002EC007A6913407B61FA69FB6802FA03F37A6955
:1002FC0013437B613B68DB78282B04D10122BB695B
:10030C009A407B685A613B68DB78482B04D1012208
:10031C00BB699A407B681A61BB690133BB61BB69DD
:10032C00072BC4D97B687A691A6000237B613B6810
:10033C001B88FF2B46D97B685B687B610023BB6104
:10034C003AE0BB690833012202FA03F3FB603B6815
:10035C001B881A46FB6813403B613A69FB689A425A
:10036C0027D1BB699B00FB600F22FB6802FA03F3E9
:10037C00BB60BB68DB437A6913407B61FA69FB683D
:10038C0002FA03F37A6913437B613B68DB78282B11
:10039C0005D1BB69083301229A407B685A613B68DE
:1003AC00DB78482B05D1BB69083301229A407B6866
:1003BC001A61BB690133BB61BB69072BC1D97B686F
:1003CC007A695A6000BF2437BD4680BC704780B440
:1003DC0083B000AF78607B684FF6FF721A807B6841
:1003EC0002229A707B680422DA7000BF0C37BD467B
:1003FC0080BC704780B485B000AF78600B467B80C2
:10040C000023FB737B689A687B881340002B02D017
:10041C000123FB7301E00023FB73FB7B18461437AD
:10042C00BD4680BC704780B483B000AF78607B68F9
:10043C009B689BB218460C37BD4680BC704780B495
:10044C0085B000AF78600B467B800023FB737B6824
:10045C00DA687B881340002B02D00123FB7301E088
:10046C000023FB73FB7B18461437BD4680BC7047DA
:10047C0080B483B000AF78607B68DB689BB21846B1
:10048C000C37BD4680BC704780B483B000AF786039
:10049C000B467B807A887B681A6100BF0C37BD469F
:1004AC0080BC704780B483B000AF78600B467B8013
:1004BC007A887B685A6100BF0C37BD4680BC704798
:1004CC0080B483B000AF78600B467B8013467B70A2
:1004DC007B78002B03D07A887B681A6102E07A88DB
:1004EC007B685A6100BF0C37BD4680BC704780B436
:1004FC0083B000AF78600B467B807A887B68DA60CB
:10050C0000BF0C37BD4680BC704780B485B000AFCF
:10051C0078600B467B804FF48033FB607B88FA68F5
:10052C001343FB607B68FA689A617A887B689A61EE
:10053C007B68FA689A617B689B69FB607B689B6946
:10054C00FB6000BF1437BD4680BC704780B485B0DB
:10055C0000AF03460A46FB711346BB710023FB60D8
:10056C000C4B1B68FB60FA684FF680731340FB6002
:10057C00FB791B01FA681343FB60BB79FA681343E0
:10058C00FB60044AFB68136000BF1437BD4680BC97
:10059C00704700BF0000014080B483B000AF034639
:1005AC00FB71044AFB79136000BF0C37BD4680BC5D
:1005BC00704700BF1C00204280B487B000AF786049
:1005CC000B46FB7000233B610023FB6000237B6127
:1005DC000023BB60214B5B687B617B681B0C03F0C9
:1005EC000F03BB607B689BB23B617B6803F4001319
:1005FC00002B04D07B6923F0E0637B6114E07B6803
:10060C0003F48013002B0AD00322BB6802FA03F315
:10061C00FB60FB68DB437A6913407B6104E03B6958
:10062C00DB437A6913407B61FB78002B0ED07B682F
:10063C0003F40013002B05D03B691B047A691343A8
:10064C007B6103E07A693B6913437B61034A7B69F5
:10065C00536000BF1C37BD4680BC70470000014092
:10066C0090B484B000AF03460A46FB711346BB71CD
:10067C000023FB60BB7903F003039B000F2202FAFB
:10068C0003F3FB601649BB799B08DBB21846144A8E
:10069C00BB799B08DBB2023352F82320FB68DB43A7
:1006AC001A40831C41F823200D48BB799B08DBB210
:1006BC001C460B4ABB799B08DBB2023352F8232051
:1006CC00F979BB7903F003039B0001FA03F31A4396
:1006DC00A31C40F8232000BF1037BD4690BC7047C8
:1006EC000000014080B483B000AF00237B60144B4A
:1006FC004FF0FF32C3F88020114B40F2FF72C3F869
:10070C0084200F4B4FF0FF32C3F880210C4B40F28A
:10071C00FF72C3F8842100237B6008E0084A7B68E1
:10072C00C033002142F823107B6801337B607B6867
:10073C000A2BF3D900BF0C37BD4680BC704700BFF5
:10074C0000E100E080B483B000AF00237B60194B64
:10075C004FF020625A60174B00229A60154B164AD4
:10076C00DA60144B00221A61124B00225A610023EA
:10077C007B6008E00F4A7B680633002142F82310A7
:10078C007B6801337B607B68022BF3D9094B002219
:10079C005A62084B4FF0FF329A62064B4FF0FF3211
:1007AC00DA62044B4FF0FF321A6300BF0C37BD46C0
:1007BC0080BC704700ED00E00000FA0580B483B007
:1007CC0000AF7860054A7B6843F0BF6343F40033A5
:1007DC00D36000BF0C37BD4680BC704700ED00E015
:1007EC0080B489B000AF78600023FB610023BB614B
:1007FC0000237B6100233B610F23FB607B68DB786C
:10080C00002B62D03B4BDB68DB431B0A03F0070376
:10081C00FB61FB69C3F104033B61FA68FB6922FAD3
:10082C0003F3FB607B685B781A463B6902FA03F3BF
:10083C00FB617B689B781A46FB681340FA6913438B
:10084C00FB61FB691B01FB617B681B7803F00303F5
:10085C00DB00FA6902FA03F3FB61274A7B681B7819
:10086C009B08DBB2C03352F82330BB617B681B782A
:10087C0003F00303DB00FF2202FA03F37B617B69C5
:10088C00DB43BA691340BB61FA697B691340FB61B6
:10089C00BA69FB691343BB6117497B681B789B08DA
:1008AC00DBB2C033BA6941F82320134A7B681B784A
:1008BC005B09DBB218467B681B7803F01F03012130
:1008CC0001FA03F342F820300FE00B497B681B78E8
:1008DC005B09DBB218467B681B7803F01F0301220F
:1008EC009A4000F1200341F8232000BF2437BD4675
:1008FC0080BC704700ED00E000E100E080B483B004
:10090C0000AF78607B6800221A707B6800225A70F6
:10091C007B6800229A707B680022DA7000BF0C376B
:10092C00BD4680BC704780B500AF02F068FD00BFCB
:10093C0080BD80B500AF02F064FD00BF80BD80B506
:10094C0000AF02F060FD00BF80BD80B500AF02F0CB
:10095C005CFD00BF80BD80B582B000AF78607B6865
:10096C001B01184602F053FD00BF0837BD4680BD81
:10097C0080B500AF02F04EFD0346184680BD80B432
:10098C0000AF054B5B681B0B9BB2C3F309039BB217
:10099C001846BD4680BC704700ED00E080B485B0C1
:1009AC0000AF0346FB710023FB730023BB60FB7994
:1009BC0003F01F03012202FA03F3BB600B4AFB791D
:1009CC005B09DBB2403352F82320BB681A40BB688A
:1009DC009A4202D10123FB7301E00023FB73FB7BE2
:1009EC0018461437BD4680BC704700BF00E100E0DC
:1009FC0080B483B000AF0346FB71044AFB791360EB
:100A0C0000BF0C37BD4680BC704700BF00EF00E054
:100A1C0080B483B000AF0346FB710949FB795B09D5
:100A2C00DBB21846FB7903F01F0301229A4000F158
:100A3C00600341F8232000BF0C37BD4680BC7047D3
:100A4C0000E100E080B400AF044B5B689BB2C3F3E1
:100A5C0009039BB21846BD4680BC704700ED00E010
:100A6C0080B485B000AF0346FB710023FB730023F9
:100A7C00BB60FB7903F01F03012202FA03F3BB6096
:100A8C000B4AFB795B09DBB2803352F82320BB683D
:100A9C001A40BB689A4202D10123FB7301E0002388
:100AAC00FB73FB7B18461437BD4680BC704700BFF8
:100ABC0000E100E080B400AF024B1B681846BD4655
:100ACC0080BC704700ED00E080B483B000AF78606C
:100ADC00396007493B6823F0604323F07F037A6851
:100AEC0013438B6000BF0C37BD4680BC704700BF02
:100AFC0000ED00E080B400AF034B044ADA6000BFA5
:100B0C00BD4680BC704700BF00ED00E00400FA0554
:100B1C0080B400AF034B044ADA6000BFBD4680BC12
:100B2C00704700BF00ED00E00100FA0580B483B00F
:100B3C0000AF03460A46FB711346BB71BB79002B11
:100B4C0006D00949084B1A69FB7913430B6106E07F
:100B5C000549054B1A69FB79DB4313400B6100BF58
:100B6C000C37BD4680BC704700ED00E080B485B00A
:100B7C0000AF78600B46FB700023FB607B6803F0D2
:100B8C001F03012202FA03F3FB60FB78002B06D053
:100B9C000949094B5A6AFB6813434B6206E0064944
:100BAC00054B5A6AFB68DB4313404B6200BF14379A
:100BBC00BD4680BC704700BF00ED00E080B487B03C
:100BCC0000AF78600B46FB701346BB7000237B6153
:100BDC00FF233B610023FB600023BB60294BDB68D8
:100BEC00DB431B0A03F00703BB60BB68C3F10403C0
:100BFC007B613A69BB6822FA03F33B61FA787B6943
:100C0C0002FA03F3BB60BA783B691340BA6813432A
:100C1C00BB60BB681B01BB607B6803F0C0037B61DE
:100C2C007B699B097B617B681B0A03F003033B61B7
:100C3C003B69DB00BA6802FA03F3BB603B69DB007B
:100C4C00FF2202FA03F3FB600E490E4A7B6906335E
:100C5C0052F82320FB68DB431A407B69063341F8CA
:100C6C0023200849074A7B69063352F82320BB68C6
:100C7C001A437B69063341F8232000BF1C37BD465D
:100C8C0080BC704700ED00E080B487B000AF7860A6
:100C9C000023FB7500233B610023FB607B689B0AF0
:100CAC00FB60FB6803F00F03FB600122FB6802FA98
:100CBC0003F3FB60094B5A6AFB6813403B613A69CA
:100CCC00FB689A4202D10123FB7501E00023FB75FE
:100CDC00FB7D18461C37BD4680BC704700ED00E01C
:100CEC0080B485B000AF78600023FB607B6803F0B4
:100CFC001F03FB600649064B5A680120FB6800FA8B
:100D0C0003F313434B6000BF1437BD4680BC7047E0
:100D1C0000ED00E080B485B000AF78600023FB608C
:100D2C007B6803F01F03FB600749074B5A68FB689D
:100D3C00013B012000FA03F313434B6000BF14374F
:100D4C00BD4680BC704700BF00ED00E080B487B0AA
:100D5C0000AF78600023FB7500233B610023FB6030
:100D6C007B689B0B03F00F03FB600122FB6802FA0C
:100D7C0003F3FB60094B5A6AFB6813403B613A6909
:100D8C00FB689A4202D10123FB7501E00023FB753D
:100D9C00FB7D18461C37BD4680BC704700ED00E05B
:100DAC0080B487B000AF786000237B6100233B6187
:100DBC000023FB607B689B0C03F003033B617B68A7
:100DCC001B0D03F00303FB603B69002B03D1114B9C
:100DDC00DB6A7B6118E03B69012B12D10D4B9A6ADF
:100DEC00FB68DB0022FA03F37B61FB68022B04D067
:100DFC007B6903F00F037B6106E07B69DBB27B61EF
:100E0C0002E0044B1B6B7B617B6918461C37BD46AB
:100E1C0080BC704700ED00E080B485B000AF786016
:100E2C000023FB600023BB607B689B0D03F0010378
:100E3C00BB60BB68002B03D1064B5B6BFB6002E015
:100E4C00044B9B6BFB60FB6818461437BD4680BC9B
:100E5C00704700BF00ED00E080B400AF1A4B0022D9
:100E6C00DA60194B00221A61174B14225A61164B87
:100E7C0000229A61144B0022DA61134A124B1B6850
:100E8C0043F00103136010490F4B5A680F4B13408A
:100E9C004B600D4A0C4B1B6823F0847323F4803396
:100EAC001360094A084B1B6823F480231360064A1D
:100EBC00054B5B6823F4FE035360034B00229A60DE
:100ECC0000BFBD4680BC7047001002400000FFF818
:100EDC0080B483B000AF7860134A134B1B6823F4C3
:100EEC0080331360104A104B1B6823F4802313606B
:100EFC007B68B3F5803F03D0B3F5802F07D00DE0AE
:100F0C00094A094B1B6843F48033136006E0064A18
:100F1C00054B1B6843F4A023136000BF00BF0C37C4
:100F2C00BD4680BC704700BF0010024080B500AFCA
:100F3C00312000F00FFB03461A460D4B1A700D4B77
:100F4C001B6801330B4A1360094B1B78DBB2002B77
:100F5C0003D1084B1B68FF2BEAD1312000F0FAFAC1
:100F6C000346002B01D0012300E00023184680BD6E
:100F7C00000000200400002080B485B000AF0346C0
:100F8C00FB710023FB600A4B1B68FB60FB6823F0C2
:100F9C00F803FB60FB79DB00FA681343FB60044A3F
:100FAC00FB68136000BF1437BD4680BC704700BFA0
:100FBC000010024080B483B000AF0346FB71044ABA
:100FCC00FB79136000BF0C37BD4680BC704700BF77
:100FDC000000424280B485B000AF786039600023D5
:100FEC00FB600A4B5B68FB60FB6823F47C13FB60C3
:100FFC007A683B681343FA681343FB60034AFB6847
:10100C00536000BF1437BD4680BC704700100240CF
:10101C0080B483B000AF0346FB71044AFB791360C4
:10102C0000BF0C37BD4680BC704700BF6000424219
:10103C0080B485B000AF78600023FB60094B5B681F
:10104C00FB60FB6823F00303FB60FA687B681343C7
:10105C00FB60044AFB68536000BF1437BD4680BC7C
:10106C00704700BF0010024080B400AF044B5B68B7
:10107C00DBB203F00C03DBB21846BD4680BC7047F4
:10108C000010024080B485B000AF78600023FB6094
:10109C00094B5B68FB60FB6823F0F003FB60FA68AC
:1010AC007B681343FB60044AFB68536000BF143732
:1010BC00BD4680BC704700BF0010024080B485B0B4
:1010CC0000AF78600023FB60094B5B68FB60FB683A
:1010DC0023F4E063FB60FA687B681343FB60044A0B
:1010EC00FB68536000BF1437BD4680BC704700BF1F
:1010FC000010024080B485B000AF78600023FB6024
:10110C00094B5B68FB60FB6823F46053FB607B68F6
:10111C00DB00FA681343FB60034AFB68536000BFB3
:10112C001437BD4680BC70470010024080B483B0B9
:10113C0000AF03460A46FB711346BB71BB79002B0B
:10114C0008D00C490B4B1B78DAB2FB791343DBB29A
:10115C000B7009E00749074B1B78DAB2FB79DB43CC
:10116C00DBB21340DBB20B7000BF0C37BD4680BC4A
:10117C00704700BF0910024080B483B000AF7860A4
:10118C00034A7B68136000BF0C37BD4680BC7047B8
:10119C00D800424280B485B000AF78600023FB6079
:1011AC00094B5B68FB60FB6823F44043FB60FA6807
:1011BC007B681343FB60044AFB68536000BF143721
:1011CC00BD4680BC704700BF0010024080B483B0A5
:1011DC0000AF78600C4B00221A700B4B00221A7077
:1011EC007B68012B02D0042B04D007E0064B0122B4
:1011FC001A7003E0044B05221A7000BF00BF0C37B5
:10120C00BD4680BC704700BF2010024080B483B044
:10121C0000AF0346FB71044AFB79136000BF0C3727
:10122C00BD4680BC704700BF8004424280B483B08E
:10123C0000AF78600549054B1A6A7B6813430B6253
:10124C0000BF0C37BD4680BC704700BF0010024089
:10125C0080B483B000AF0346FB71044AFB79136082
:10126C0000BF0C37BD4680BC704700BF3C044242F7
:10127C0080B487B000AF786000237B6100233B61B2
:10128C000023FB600023BB604A4B5B6803F00C033C
:10129C007B617B69042B07D0082B09D0002B33D141
:1012AC007B68454A1A6033E07B68434A1A602FE03A
:1012BC00404B5B6803F470133B613B699B0C02333E
:1012CC003B613C4B5B6803F48033FB60FB68002B99
:1012DC0006D13B69394A02FB03F27B681A6017E0BE
:1012EC00344B5B6803F40033002B06D03B69334A64
:1012FC0002FB03F27B681A600AE03B692E4A02FB90
:10130C0003F27B681A6003E07B682B4A1A6000BF0B
:10131C00284B5B6803F0F0037B617B691B097B61E5
:10132C00274A7B6913441B78BB607B681A68BB68CF
:10133C00DA407B685A601F4B5B6803F4E0637B61A7
:10134C007B691B0A7B611E4A7B6913441B78BB605B
:10135C007B685A68BB68DA407B689A60154B5B689F
:10136C0003F460537B617B69DB0A7B61144A7B6904
:10137C0013441B78BB607B685A68BB68DA407B6897
:10138C00DA600C4B5B6803F440437B617B699B0B1D
:10139C007B610C4A7B6913441B78BB607B68DA6801
:1013AC00BB68B2FBF3F27B681A6100BF1C37BD4609
:1013BC0080BC70470010024000127A0000093D000A
:1013CC00943A0008A43A000880B483B000AF786067
:1013DC000B46FB70FB78002B06D00949084B5A6969
:1013EC007B6813434B6106E00549054B5A697B68E2
:1013FC00DB4313404B6100BF0C37BD4680BC7047CC
:10140C000010024080B483B000AF78600B46FB70D4
:10141C00FB78002B06D00949084B9A697B6813436B
:10142C008B6106E00549054B9A697B68DB431340E9
:10143C008B6100BF0C37BD4680BC7047001002406A
:10144C0080B483B000AF78600B46FB70FB78002B48
:10145C0006D00949084BDA697B681343CB6106E077
:10146C000549054BDA697B68DB431340CB6100BF50
:10147C000C37BD4680BC70470010024080B483B06E
:10148C0000AF78600B46FB70FB78002B06D0094947
:10149C00084BDA687B681343CB6006E00549054BC3
:1014AC00DA687B68DB431340CB6000BF0C37BD466A
:1014BC0080BC70470010024080B483B000AF7860ED
:1014CC000B46FB70FB78002B06D00949084B1A69B8
:1014DC007B6813430B6106E00549054B1A697B6871
:1014EC00DB4313400B6100BF0C37BD4680BC70471B
:1014FC000010024080B483B000AF0346FB71044A75
:10150C00FB79136000BF0C37BD4680BC704700BF31
:10151C004004424280B483B000AF0346FB71044ADE
:10152C00FB79136000BF0C37BD4680BC704700BF11
:10153C004C00424280B483B000AF0346FB71044AB6
:10154C00FB79137000BF0C37BD4680BC704700BFE1
:10155C000710024080B487B000AF0346FB71002334
:10156C00FB6000237B610023FB74FB795B09DBB21E
:10157C00FB60FB68012B03D1124B1B687B6109E0FC
:10158C00FB68022B03D10F4B1B6A7B6102E00D4BF6
:10159C005B6A7B61FB7903F01F03FB607A69FB6874
:1015AC0022FA03F303F00103002B02D00123FB7496
:1015BC0001E00023FB74FB7C18461C37BD4680BC45
:1015CC00704700BF0010024080B400AF044A044BC7
:1015DC005B6A43F08073536200BFBD4680BC7047AA
:1015EC000010024080B485B000AF0346FB710023AD
:1015FC00FB73084B9A68FB791340002B02D0012334
:10160C00FB7301E00023FB73FB7B18461437BD46CC
:10161C0080BC70470010024080B483B000AF03461A
:10162C00FB71044AFB79137000BF0C37BD4680BCBC
:10163C00704700BF0A10024080B582B000AF7860DE
:10164C003B1D1B68144A93420FD0144A934215D089
:10165C00B3F1804F00D01AE001210120FFF72CFFDD
:10166C0000210120FFF728FF11E001210220FFF7E4
:10167C0023FF00210220FFF71FFF08E001210420B7
:10168C00FFF71AFF00210420FFF716FF00BF00BF71
:10169C000837BD4680BD00BF000400400008004074
:1016AC0080B483B000AF786039603B681A887B687F
:1016BC009A853B685A887B681A857B681B889BB225
:1016CC0003F08F039AB27B681A807B681B889AB2EE
:1016DC003B6899883B68DB880B439BB213439AB2F7
:1016EC007B681A8000BF0C37BD4680BC704780B445
:1016FC0085B000AF786039600023FB600023BB60CD
:10170C007B681B8C9BB2BB603B685B88002B03D057
:10171C003B685B88012B5BD17B681B8B9BB2FB60AE
:10172C003B685B881A46614B33F812301A46FB68EB
:10173C001340FB603B685B881A465D4B33F81230F4
:10174C001A46BB681340BB603B685B88002B1DD1FD
:10175C007B681B8C9AB243F2323313409AB27B688B
:10176C001A843B681B881A46FB681343FB603B6872
:10177C009A887B689A86BB6843F00103BB603B6820
:10178C00DB881A46BB681343BB601CE07B681B8C70
:10179C009AB243F2233313409AB27B681A843B68A3
:1017AC001B881B02FA681343FB603B689A887B68B2
:1017BC001A87BB6843F01003BB603B68DB881B01D6
:1017CC00BA681343BB60FB689AB27B681A8363E008
:1017DC003B685B88022B03D03B685B88032B5BD197
:1017EC007B689B8B9BB2FB603B685B881A462F4BDC
:1017FC0033F812301A46FB681340FB603B685B8879
:10180C001A462B4B33F812301A46BB681340BB6098
:10181C003B685B88022B1DD17B681B8C9AB243F210
:10182C00332313409AB27B681A843B681B881A4690
:10183C00FB681343FB603B689A887B689A87BB689C
:10184C0043F48073BB603B68DB881B02BA681343AC
:10185C00BB601DE07B681B8C9AB242F233331340A1
:10186C009AB27B681A843B681B881B02FA68134384
:10187C00FB603B689A887B68A3F84020BB6843F404
:10188C008053BB603B68DB881B03BA681343BB60A7
:10189C00FB689AB27B689A83BB689AB27B681A849D
:1018AC0000BF1437BD4680BC704700BFA83A000883
:1018BC00B03A000880B582B000AF786039603B6800
:1018CC001B88072B4BD13B685B88002B0FD13B68E7
:1018DC0099883B68DA883B689B7A786801F052F803
:1018EC003B681B891946786800F09BFE3BE03B681F
:1018FC005B88012B0FD13B6899883B68DA883B6881
:10190C009B7A786801F08DF83B681B8919467868DA
:10191C0000F0A5FE27E03B685B88022B0FD13B68EB
:10192C0099883B68DA883B689B7A786801F0CDF837
:10193C003B681B891946786800F0B2FE13E03B68DF
:10194C0099883B68DA883B689B7A786801F00DF9D6
:10195C003B681B891946786800F0C0FE03E03968C3
:10196C00786800F0AFFF00BF0837BD4680BD80B47B
:10197C0083B000AF78607B6800221A807B680022FD
:10198C005A807B6800229A807B680022DA8000BF34
:10199C000C37BD4680BC704780B483B000AF786014
:1019AC007B6800221A807B6800225A807B680022A8
:1019BC009A807B680022DA8000BF0C37BD4680BC61
:1019CC00704780B483B000AF78607B6807221A80C0
:1019DC007B6800225A807B6800229A807B680122F7
:1019EC00DA807B6800221A817B6800229A7200BF21
:1019FC000C37BD4680BC704780B483B000AF7860B4
:101A0C000B46FB70FB78002B08D07B681B889BB2C5
:101A1C0043F001039AB27B681A8008E07B681B884C
:101A2C009AB240F2FE3313409AB27B681A8000BF20
:101A3C000C37BD4680BC704780B483B000AF786073
:101A4C000B467B8013467B707B78002B08D07B6821
:101A5C009B899AB27B8813439AB27B689A8109E07E
:101A6C007B689B899AB27B88DB439BB213409AB20A
:101A7C007B689A8100BF0C37BD4680BC704780B430
:101A8C0085B000AF78600B467B8013463B8000230B
:101A9C00FB607B68B3F848309BB2FB600023FB60B3
:101AAC007A883B8813439BB21A46FB681343FB604E
:101ABC00FB689AB27B68A3F8482000BF1437BD4678
:101ACC0080BC704780B485B000AF78600B467B80DB
:101ADC0013467B700023FB607B689B899BB2FB6089
:101AEC007B78002B04D07B88FA681343FB6006E0FC
:101AFC007B88DB439BB21A46FB681340FB60FB6898
:101B0C009AB27B689A8100BF1437BD4680BC70477F
:101B1C0080B483B000AF78607B681B899BB223F0E4
:101B2C000F039AB27B681A8100BF0C37BD4680BC8C
:101B3C00704780B582B000AF78600B467B807B88A5
:101B4C001946786800F0BEF87B681B899BB243F09D
:101B5C0007039AB27B681A8100BF0837BD4680BD67
:101B6C0080B584B000AFF860084611461A460346AB
:101B7C007B810B463B811346FB717B89602B06D125
:101B8C00FB7939890122F86800F04BFF05E0FB79FD
:101B9C0039890122F86800F0F5FE7B891946F8684E
:101BAC0000F090F8FB681B899BB243F007039AB2D4
:101BBC00FB681A8100BF1037BD4680BD80B584B06C
:101BCC0000AFF860084611461A4603467B810B4667
:101BDC003B811346FB71FB793A897989F86800F0EF
:101BEC0043F8FB681B899BB223F00F039AB2FB6886
:101BFC001A81FB681B899BB243F007039AB2FB68FE
:101C0C001A81FB681B899BB223F078039AB2FB689C
:101C1C001A81FB681B899BB243F070039AB2FB6874
:101C2C001A8100BF1037BD4680BD80B584B000AFAF
:101C3C00F860084611461A4603467B810B463B81E9
:101C4C001346FB71FB793A897989F86800F00CF836
:101C5C00FB681B899BB243F480439AB2FB681A81E0
:101C6C0000BF1037BD4680BD80B487B000AFF860B0
:101C7C00084611461A4603467B810B463B811346A8
:101C8C00FB7100237B61FB681B899BB27B617B69C9
:101C9C0003F0F7037B617A893B8913439AB2FB7992
:101CAC009BB21B029BB213439BB21A467B69134334
:101CBC007B617B699AB2FB681A8100BF1C37BD46F9
:101CCC0080BC704780B485B000AF78600B467B80D9
:101CDC000023FB607B681B899BB2FB60FA684FF6A4
:101CEC0087731340FB607B88FA681343FB60FB68C7
:101CFC009AB27B681A8100BF1437BD4680BC70470E
:101D0C0080B483B000AF78600B467B8013463B8079
:101D1C007B687A881A853B88012B08D17B689B8A63
:101D2C009BB243F001039AB27B689A8207E07B680E
:101D3C009B8A9BB203F001039AB27B689A8200BF24
:101D4C000C37BD4680BC704780B485B000AF78605E
:101D5C000B467B800023FB607B681B889BB2FB607F
:101D6C00FA6840F28F331340FB607B88FA681343A8
:101D7C00FB60FB689AB27B681A8000BF1437BD46C3
:101D8C0080BC704780B485B000AF78600B467B8018
:101D9C000023FB607B681B8B9BB2FB60FA684FF6E1
:101DAC008F731340FB607B88FA681343FB60FB68FE
:101DBC009AB27B681A8300BF1437BD4680BC70474B
:101DCC0080B485B000AF78600B467B800023FB604D
:101DDC007B681B8B9BB2FB60FA6848F6FF73134061
:101DEC00FB607B881B029BB21A46FB681343FB60AB
:101DFC00FB689AB27B681A8300BF1437BD4680BC5F
:101E0C00704780B485B000AF78600B467B800023B0
:101E1C00FB607B689B8B9BB2FB60FA684FF68F7301
:101E2C001340FB607B88FA681343FB60FB689AB233
:101E3C007B689A8300BF1437BD4680BC704780B462
:101E4C0085B000AF78600B467B800023FB607B681D
:101E5C009B8B9BB2FB60FA6848F6FF731340FB60E8
:101E6C007B881B029BB21A46FB681343FB60FB6822
:101E7C009AB27B689A8300BF1437BD4680BC70470A
:101E8C0080B485B000AF78600B46FB700023FB601C
:101E9C007B681B889BB2FB60FB78002B04D0FB6833
:101EAC0043F08003FB6004E0FA6840F27F33134098
:101EBC00FB60FB689AB27B681A8000BF1437BD4682
:101ECC0080BC704780B485B000AF78600B46FB7067
:101EDC000023FB607B689B889BB2FB60FB78002B2C
:101EEC0004D0FB6843F00803FB6003E0FB6803F0DD
:101EFC00F003FB60FB689AB27B689A8000BF1437D2
:101F0C00BD4680BC704780B485B000AF78600B468E
:101F1C007B800023FB607B681B8B9BB2FB60FA68A9
:101F2C004FF6F7731340FB607B88FA681343FB6032
:101F3C00FB689AB27B681A8300BF1437BD4680BC1D
:101F4C00704780B485B000AF78600B467B8000236F
:101F5C00FB607B681B8B9BB2FB60FA684FF2FF73D4
:101F6C001340FB607B881B029BB21A46FB68134331
:101F7C00FB60FB689AB27B681A8300BF1437BD46BE
:101F8C0080BC704780B485B000AF78600B467B8016
:101F9C000023FB607B689B8B9BB2FB60FA684FF65F
:101FAC00F7731340FB607B88FA681343FB60FB6894
:101FBC009AB27B689A8300BF1437BD4680BC7047C9
:101FCC0080B485B000AF78600B467B800023FB604B
:101FDC007B689B8B9BB2FB60FA684FF2FF731340DC
:101FEC00FB607B881B029BB21A46FB681343FB60A9
:101FFC00FB689AB27B689A8300BF1437BD4680BCDD
:10200C00704780B485B000AF78600B467B800023AE
:10201C00FB607B681B8B9BB2FB60FA684FF6FB7313
:10202C001340FB607B88FA681343FB60FB689AB231
:10203C007B681A8300BF1437BD4680BC704780B4E0
:10204C0085B000AF78600B467B800023FB607B681B
:10205C001B8B9BB2FB60FA684FF6FF331340FB609F
:10206C007B881B029BB21A46FB681343FB60FB6820
:10207C009AB27B681A8300BF1437BD4680BC704788
:10208C0080B485B000AF78600B467B800023FB608A
:10209C007B689B8B9BB2FB60FA684FF6FB7313401B
:1020AC00FB607B88FA681343FB60FB689AB27B6821
:1020BC009A8300BF1437BD4680BC704780B485B08E
:1020CC0000AF78600B467B800023FB607B689B8BAA
:1020DC009BB2FB60FA684FF6FF331340FB607B88C2
:1020EC001B029BB21A46FB681343FB60FB689AB257
:1020FC007B689A8300BF1437BD4680BC704780B4A0
:10210C0085B000AF78600B467B800023FB607B685A
:10211C001B8B9BB2FB60FA684FF67F731340FB601E
:10212C007B88FA681343FB60FB689AB27B681A835E
:10213C0000BF1437BD4680BC704780B485B000AF7B
:10214C0078600B467B800023FB607B681B8B9BB20B
:10215C00FB60FB68C3F30E03FB607B881B029BB226
:10216C001A46FB681343FB60FB689AB27B681A83C0
:10217C0000BF1437BD4680BC704780B485B000AF3B
:10218C0078600B467B800023FB607B689B8B9BB24B
:10219C00FB60FA684FF67F731340FB607B88FA682C
:1021AC001343FB60FB689AB27B689A8300BF1437B9
:1021BC00BD4680BC704780B485B000AF78600B46DC
:1021CC007B800023FB607B689B8B9BB2FB60FB6876
:1021DC00C3F30E03FB607B881B029BB21A46FB68A1
:1021EC001343FB60FB689AB27B689A8300BF143779
:1021FC00BD4680BC704780B485B000AF78600B469C
:10220C00FB700023FB607B681B889BB2FB60FB7838
:10221C00002B04D0FB6843F00203FB6004E0FA6877
:10222C0040F2FD331340FB60FB689AB27B681A8066
:10223C0000BF1437BD4680BC704780B489B000AF76
:10224C00F860084611461A4603467B810B463B81D3
:10225C001346FB800023FB610023BB6100237B61E1
:10226C00FB681B899BB2FB61FB681B8B9BB2BB6140
:10227C00FB681B8C9BB27B61FA694FF6F0731340C1
:10228C00FB617B89FA691343FB61BA694FF6FC4326
:10229C001340BB61BB6943F4807343F00103BB6122
:1022AC007A6943F2113313407B61FB881B019AB2AC
:1022BC003B8913439BB21A467B6913437B61FB69D1
:1022CC009AB2FB681A81BB699AB2FB681A837B6964
:1022DC009AB2FB681A8400BF2437BD4680BC704795
:1022EC0080B483B000AF78600B467B807B689B8AA0
:1022FC009AB27B8813439AB27B689A8200BF0C37E0
:10230C00BD4680BC704780B485B000AF78600B468A
:10231C007B800023FB607B681B8C9BB2FB60FA68A4
:10232C0043F231331340FB607B88FA681343FB6044
:10233C00FB689AB27B681A8400BF1437BD4680BC18
:10234C00704780B485B000AF78600B467B8000236B
:10235C00FB607B681B8C9BB2FB60FA6843F2133307
:10236C001340FB607B881B019BB21A46FB6813432E
:10237C00FB60FB689AB27B681A8400BF1437BD46B9
:10238C0080BC704780B485B000AF78600B467B8012
:10239C000023FB607B681B8C9BB2FB60FA6843F2EA
:1023AC0033131340FB607B881B029BB21A46FB68FD
:1023BC001343FB60FB689AB27B681A8400BF143726
:1023CC00BD4680BC704780B485B000AF78600B46CA
:1023DC007B800023FB607B681B8C9BB2FB60FA68E4
:1023EC0041F233331340FB607B881B039BB21A46CC
:1023FC00FB681343FB60FB689AB27B681A8400BFCE
:10240C001437BD4680BC704780B485B000AF78608F
:10241C000B467B800023FB607B681B889BB2FB60B8
:10242C007B88012B04D1FB6843F00403FB6004E0C0
:10243C00FA6840F2FB331340FB60FB689AB27B688E
:10244C001A8000BF1437BD4680BC704780B483B07F
:10245C0000AF78600B46FB70FB78002B08D07B68D4
:10246C009B889BB243F080039AB27B689A8007E00A
:10247C007B689B889BB223F08F039AB27B689A800F
:10248C0000BF0C37BD4680BC704780B485B000AF30
:10249C0078600B467B800023FB607B681B889BB2BB
:1024AC00FB60FA6840F2F7331340FB607B88FA68F4
:1024BC001343FB60FB689AB27B681A8000BF143729
:1024CC00BD4680BC704780B485B000AF78600B46C9
:1024DC007B800023FB607B689B889BB2FB60FB6866
:1024EC0003F08003FB607B88FA681343FB60FB6896
:1024FC009AB27B689A8000BF1437BD4680BC704787
:10250C0080B485B000AF78600B467B800023FB6005
:10251C007B681B899BB2FB60FA684FF6F073134023
:10252C00FB607B88FA681343FB60FB689AB27B689C
:10253C001A8100BF1437BD4680BC704780B485B08B
:10254C0000AF78600B467B800023FB607B681B89A7
:10255C009BB2FB60FA684FF677731340FB607B8885
:10256C00FA681343FB60FB689AB27B681A8100BF60
:10257C001437BD4680BC704780B483B000AF786020
:10258C000B467B807B687A889A8400BF0C37BD46EB
:10259C0080BC704780B483B000AF78600B467B8002
:1025AC007B687A889A8500BF0C37BD4680BC704723
:1025BC0080B483B000AF78600B467B807B687A88F0
:1025CC009A8600BF0C37BD4680BC704780B483B080
:1025DC0000AF78600B467B807B687A881A8700BFD7
:1025EC000C37BD4680BC704780B483B000AF7860B8
:1025FC000B467B807B687A889A8700BF0C37BD4678
:10260C0080BC704780B483B000AF78600B467B8091
:10261C007B687A88A3F8402000BF0C37BD4680BC8D
:10262C00704780B485B000AF78600B467B80002388
:10263C00FB607B681B8B9BB2FB60FA684FF6F373F5
:10264C001340FB607B88FA681343FB60FB689AB20B
:10265C007B681A8300BF1437BD4680BC704780B4BA
:10266C0085B000AF78600B467B800023FB607B68F5
:10267C001B8B9BB2FB60FA684FF2FF331340FB607D
:10268C007B881B029BB21A46FB681343FB60FB68FA
:10269C009AB27B681A8300BF1437BD4680BC704762
:1026AC0080B485B000AF78600B467B800023FB6064
:1026BC007B689B8B9BB2FB60FA684FF6F3731340FD
:1026CC00FB607B88FA681343FB60FB689AB27B68FB
:1026DC009A8300BF1437BD4680BC704780B485B068
:1026EC0000AF78600B467B800023FB607B689B8B84
:1026FC009BB2FB60FA684FF2FF331340FB607B88A0
:10270C001B029BB21A46FB681343FB60FB689AB230
:10271C007B689A8300BF1437BD4680BC704780B479
:10272C0085B000AF78600B467B800023FB607B6834
:10273C001B889BB2FB60FB68DBB2FB607B88FA6892
:10274C001343FB60FB689AB27B681A8000BF143796
:10275C00BD4680BC704780B483B000AF78607B68A6
:10276C009B8E9BB218460C37BD4680BC704780B41C
:10277C0083B000AF78607B681B8F9BB218460C3718
:10278C00BD4680BC704780B483B000AF78607B6876
:10279C009B8F9BB218460C37BD4680BC704780B4EB
:1027AC0083B000AF78607B68B3F840309BB21846BA
:1027BC000C37BD4680BC704780B483B000AF7860E6
:1027CC007B689B8C9BB218460C37BD4680BC70470F
:1027DC0080B483B000AF78607B681B8D9BB21846C9
:1027EC000C37BD4680BC704780B485B000AF7860B4
:1027FC000B467B800023FB737B681B8A9AB27B8819
:10280C0013409BB2002B02D00123FB7301E0002389
:10281C00FB73FB7B18461437BD4680BC704780B4F5
:10282C0083B000AF78600B467B807B681B8A9AB2C2
:10283C007B88DB439BB213409AB27B681A8200BF41
:10284C000C37BD4680BC704780B485B000AF786053
:10285C000B467B800023FB730023BB8100237B8111
:10286C007B681B8A9AB27B881340BB817B689B89EF
:10287C009AB27B8813407B81BB89002B05D07B8966
:10288C00002B02D00123FB7301E00023FB73FB7BC5
:10289C0018461437BD4680BC704780B483B000AF77
:1028AC0078600B467B807B681B8A9AB27B88DB4303
:1028BC009BB213409AB27B681A8200BF0C37BD469C
:1028CC0080BC704780B584B000AF7860396000235D
:1028DC00FB730123BB733B689B88002B02D1022343
:1028EC00FB7301E00023FB733B68DB88012B02D1F7
:1028FC000223BB7301E00123BB733B685B88002B95
:10290C001ED13B6899883B68DA883B689B7A78686B
:10291C0000F038F83B681B8919467868FFF781FE90
:10292C00FB7B99B2BB7B9AB23B689B7A786800F0D0
:10293C0078F83B681B8919467868FFF790FE1DE014
:10294C003B6899883B68DA883B689B7A786800F02A
:10295C0068F83B681B8919467868FFF780FEFB7B9B
:10296C0099B2BB7B9AB23B689B7A786800F00AF804
:10297C003B681B8919467868FFF753FE00BF103778
:10298C00BD4680BD80B487B000AFF86008461146E4
:10299C001A4603467B810B463B811346FB71002391
:1029AC007B6100233B61FB681B8B9BB27B61FB68EB
:1029BC001B8C9BB23B61FB681B8C9AB243F232338B
:1029CC0013409AB2FB681A847A694FF60C73134061
:1029DC007B61FB799BB21B019AB23B8913439BB27F
:1029EC001A467B6913437B613A6943F230331340D7
:1029FC003B617B8943F001039BB21A463B6913434D
:102A0C003B61FB6800221A837B699AB2FB681A83CC
:102A1C003B699AB2FB681A8400BF1C37BD4680BC68
:102A2C00704780B489B000AFF860084611461A466A
:102A3C0003467B810B463B811346FB710023FB61F4
:102A4C000023BB6100237B61FB681B8B9BB2FB618A
:102A5C00FB681B8C9BB2BB617B891B019BB27B61AE
:102A6C00FB681B8C9AB243F2233313409AB2FB6877
:102A7C001A84FA6940F6FF431340FB61FB799BB261
:102A8C001B039BB21A46FB691343FB613B891B0278
:102A9C009BB21A46FB691343FB61BA6943F20333D9
:102AAC001340BB617A69BB69134343F01003BB61EC
:102ABC00FB699AB2FB681A83BB699AB2FB681A84E9
:102ACC0000BF2437BD4680BC704780B489B000AFCE
:102ADC00F860084611461A4603467B810B463B813B
:102AEC001346FB710023FB610023BB6100237B6158
:102AFC00FB689B8B9BB2FB61FB681B8C9BB2BB6125
:102B0C007B891B029BB27B61FB681B8C9AB243F2E4
:102B1C00332313409AB2FB681A84FA694FF60C738C
:102B2C001340FB61FB799BB21B019AB23B891343A7
:102B3C009BB21A46FB691343FB61BA6943F2330338
:102B4C001340BB617A69BB69134343F48073BB6167
:102B5C00FB699AB2FB689A83BB699AB2FB681A84C8
:102B6C0000BF2437BD4680BC704780B489B000AF2D
:102B7C00F860084611461A4603467B810B463B819A
:102B8C001346FB710023FB610023BB6100237B61B7
:102B9C00FB689B8B9BB2FB61FB681B8C9BB2BB6184
:102BAC007B891B039BB27B61FB681B8C9AB242F244
:102BBC00333313409AB2FB681A84FA6940F6FF4328
:102BCC001340FB613B891B029AB2FB799BB21B033E
:102BDC009BB213439BB21A46FB691343FB61BA6960
:102BEC0040F233331340BB617A69BB69134343F43E
:102BFC008053BB61FB699AB2FB689A83BB699AB23A
:102C0C00FB681A8400BF2437BD4680BC704700BFE8
:102C1C0080B582B000AF78603B1D1B68174A9342A9
:102C2C001CD0174A934203D0164A93420BD020E093
:102C3C0001214FF48040FEF721FC00214FF480402D
:102C4C00FEF71CFC15E001214FF40030FEF734FCBC
:102C5C0000214FF40030FEF72FFC0AE001214FF465
:102C6C008020FEF729FC00214FF48020FEF724FC85
:102C7C0000BF00BF0837BD4680BD00BF0048004004
:102C8C00003801400044004080B58CB000AF786043
:102C9C0039600023BB620023FB6200237B620023AC
:102CAC003B627B681B8A9BB2BB62BA6A4CF2FF0325
:102CBC001340BB623B68DA883B68DB8913439AB2EA
:102CCC003B681B8A13439AB23B685B8A13439AB2E4
:102CDC003B689B8A13439BB21A46BB6A1343BB6285
:102CEC007B68BA6A92B21A820023BB627B689B89AA
:102CFC009BB2BB62BA6A4EF6F3131340BB623B68DD
:102D0C009A883B681B8913439AB23B689B8913438F
:102D1C009BB21A46BB6A1343BB627B68BA6A92B217
:102D2C009A810023BB627B689B8A9BB2BB62BA6AA6
:102D3C004FF6FF431340BB623B685B891A46BB6A84
:102D4C001343BB627B68BA6A92B29A820023BB625D
:102D5C0007F10C031846FEF78BFA3B1D1B681B4A48
:102D6C00934202D1BB69FB6201E07B69FB62FA6AA8
:102D7C0013469B0013449A001A443B681B689B0043
:102D8C00B2FBF3F37B627B6A114AA2FB03235B0960
:102D9C001B01BB62BB6A1B09642202FB03F37A6A48
:102DAC00D31A3B623B6A1B013233094AA2FB032351
:102DBC005B0903F00F03BA6A1343BB627B68BA6A00
:102DCC0092B21A8100BF3037BD4680BD0038014039
:102DDC001F85EB5180B483B000AF78607B684FF4F3
:102DEC0016521A607B6800229A807B680022DA8077
:102DFC007B6800221A817B6800225A817B680C2236
:102E0C009A817B680022DA817B6800221A827B68B7
:102E1C0000225A827B6800229A8200BF0C37BD4682
:102E2C0080BC704780B483B000AF78600B46FB70F9
:102E3C00FB78002B08D07B689B899BB243F4005332
:102E4C009AB27B689A8107E07B689B899BB223F4DA
:102E5C0000539AB27B689A8100BF0C37BD4680BC88
:102E6C00704780B487B000AF78600B467B80134608
:102E7C007B7000233B610023FB600023BB600023BD
:102E8C007B617B88DBB25B09DBB23B617B8803F047
:102E9C001F03FB600122FB6802FA03F3BB603B1DBE
:102EAC001B687B613B69012B03D17B690C337B6114
:102EBC0009E03B69022B03D17B6910337B6102E093
:102ECC007B6914337B617B78002B06D07B697A6934
:102EDC001168BA680A431A6006E07B697A6911685E
:102EEC00BA68D2430A401A6000BF1C37BD4680BC8A
:102EFC00704780B483B000AF78600B467B8013467C
:102F0C007B707B78002B08D07B689B8A9AB27B887D
:102F1C0013439AB27B689A8209E07B689B8A9AB2C7
:102F2C007B88DB439BB213409AB27B689A8200BFCA
:102F3C000C37BD4680BC704780B483B000AF78605E
:102F4C000B46FB707B681B8A9BB223F00F039AB273
:102F5C007B681A827B681B8A9AB2FB789BB21343FC
:102F6C009AB27B681A8200BF0C37BD4680BC704792
:102F7C0080B483B000AF78600B467B807B689B8904
:102F8C009BB223F400639AB27B689A817B689B891D
:102F9C009AB27B8813439AB27B689A8100BF0C3734
:102FAC00BD4680BC704780B483B000AF78600B46E0
:102FBC00FB70FB78002B08D07B689B899BB243F09D
:102FCC0002039AB27B689A8107E07B689B899BB26B
:102FDC0023F002039AB27B689A8100BF0C37BD467E
:102FEC0080BC704780B483B000AF78600B467B80A8
:102FFC007B681B8A9BB223F020039AB27B681A82EF
:10300C007B681B8A9AB27B8813439AB27B681A82BC
:10301C0000BF0C37BD4680BC704780B483B000AF96
:10302C0078600B46FB70FB78002B08D07B681B8A02
:10303C009BB243F480439AB27B681A8207E07B68A8
:10304C001B8A9BB223F480439AB27B681A8200BF1E
:10305C000C37BD4680BC704780B483B000AF78603D
:10306C000B467B807B88C3F308039AB27B689A80FB
:10307C0000BF0C37BD4680BC704780B483B000AF36
:10308C0078607B689B889BB2C3F308039BB218469D
:10309C000C37BD4680BC704780B483B000AF7860FD
:1030AC007B689B899BB243F001039AB27B689A813F
:1030BC0000BF0C37BD4680BC704780B483B000AFF6
:1030CC0078600B46FB707B681B8B9BB2DBB29AB2B1
:1030DC007B681A837B681B8B9AB2FB789BB21B02B2
:1030EC009BB213439AB27B681A8300BF0C37BD4660
:1030FC0080BC704780B483B000AF78600B46FB7027
:10310C007B681B8B9BB223F0FF039AB27B681A83FC
:10311C007B681B8B9AB2FB789BB213439AB27B6889
:10312C001A8300BF0C37BD4680BC704780B483B097
:10313C0000AF78600B46FB70FB78002B08D07B68E7
:10314C009B8A9BB243F020039AB27B689A8207E079
:10315C007B689B8A9BB223F020039AB27B689A828D
:10316C0000BF0C37BD4680BC704780B483B000AF45
:10317C0078600B46FB70FB78002B08D07B689B8A31
:10318C009BB243F010039AB27B689A8207E07B688B
:10319C009B8A9BB223F010039AB27B689A8200BF81
:1031AC000C37BD4680BC704780B483B000AF7860EC
:1031BC000B46FB70FB78002B08D07B689B8A9BB27C
:1031CC0043F008039AB27B689A8207E07B689B8A7B
:1031DC009BB223F008039AB27B689A8200BF0C372B
:1031EC00BD4680BC704780B483B000AF78600B469E
:1031FC007B807B689B8A9BB223F004039AB27B682A
:10320C009A827B689B8A9AB27B8813439AB27B68BA
:10321C009A8200BF0C37BD4680BC704780B483B027
:10322C0000AF78600B46FB70FB78002B08D07B68F6
:10323C009B8A9BB243F002039AB27B689A8207E0A6
:10324C007B689B8A9BB223F002039AB27B689A82BA
:10325C0000BF0C37BD4680BC704780B485B000AF52
:10326C0078600B467B800023FB737B681B889AB2CB
:10327C007B8813409BB2002B02D00123FB7301E02F
:10328C000023FB73FB7B18461437BD4680BC70478C
:10329C0080B483B000AF78600B467B807B681B8862
:1032AC009AB27B88DB439BB213409AB27B681A803C
:1032BC0000BF0C37BD4680BC704780B487B000AFF0
:1032CC0078600B467B800023FB6000237B6100232E
:1032DC00BB600023FB747B88DBB25B09DBB2BB6099
:1032EC007B8803F01F037B6101227B6902FA03F3E5
:1032FC007B61BB68012B07D17B689B899BB21A460B
:10330C007B6913407B6111E0BB68022B07D17B68A2
:10331C001B8A9BB21A467B6913407B6106E07B6873
:10332C009B8A9BB21A467B6913407B617B881B0A84
:10333C009BB2FB600122FB6802FA03F3FB607B6823
:10334C001B889BB21A46FB681340FB607B69002B01
:10335C0005D0FB68002B02D00123FB7401E0002395
:10336C00FB74FB7C18461C37BD4680BC704780B490
:10337C0085B000AF78600B467B800023FB60002398
:10338C00BB607B881B0A9BB2FB600122FB6802FAC4
:10339C0003F3BB607B681B889AB2BB689BB2DB43B0
:1033AC009BB213409AB27B681A8000BF1437BD469B
:1033BC0080BC704730BF704720BF704740BF70471C
:1033CC00BFF36F8F7047BFF34F8F7047BFF35F8FA3
:1033DC00704701DF7047EFF31480704780F3148857
:1033EC00BFF36F8F7047EFF30980704780F3098844
:1033FC007047EFF30880704780F30888704772B607
:10340C00704762B6704771B6704761B6704780F30B
:10341C0011887047EFF31280704740BA704700BABA
:10342C0070470000684620F007018D4681B583B0D7
:10343C0000AF134B7B60134B3B6007E03B681A1DDE
:10344C003A607A68111D796012681A603B680E4AFE
:10345C009342F3D30D4B3B6004E03B681A1D3A607A
:10346C0000221A603B680A4A9342F6D300F090F9A6
:10347C0000BF0C37BD46BDE881408546704700BF94
:10348C00B83A0008000000200000002000000020D6
:10349C001000002080B58CB000AF00F080F900F077
:1034AC00BDF901210220FDF7CBFF01214FF40030C3
:1034BC00FDF7C6FF01210420FDF7A4FF012109201F
:1034CC00FDF7A0FF01211020FDF79CFF182387F8C2
:1034DC002F300423BB85032387F82E3007F12C03F0
:1034EC0019465948FCF7B6FE042387F82F300823F9
:1034FC00BB8507F12C0319465348FCF7ABFE0121A1
:10350C005248FFF78FFC4FF416537B614FF48053F6
:10351C003B8300237B830023BB830023FB830C238F
:10352C003B8407F1140319464848FFF7ADFB4FF4F1
:10353C000053BB85012387F82E30102387F82F30DA
:10354C0007F12C0319464248FCF784FE0123BB8586
:10355C00182387F82F30032387F82E3007F12C031C
:10356C0019463C48FCF776FE4FF48053BB8501238B
:10357C0087F82E30102387F82F3007F12C031946CB
:10358C003448FCF767FE4FF40053BB8507F12C035E
:10359C0019463048FCF75EFE4FF48043BB8507F1BB
:1035AC002C0319462B48FCF755FE4FF40043BB8502
:1035BC0007F12C0319462748FCF74CFE4FF48051B9
:1035CC002448FCF761FF4FF400512248FCF76AFFD6
:1035DC004FF480411F48FCF757FF4FF400411D4842
:1035EC00FCF760FF4FF4E153BB810023FB81002308
:1035FC003B8200237B8207F10C0319461648FEF729
:10360C004FF83B1D1846FEF7C7F96023BB804FF4FB
:10361C0096533B810223FB8000237B813B1D194683
:10362C000D48FEF764F808210B48FEF7ABFC0121AE
:10363C000948FEF725FC01210748FEF7DDF900BF1C
:10364C003037BD4680BD00BF00080140004400403B
:10365C0000100140000C01400004004080B500AF98
:10366C004FF400510B48FCF71DFF412000F068F8A7
:10367C004FF47A7000F010F84FF400510548FCF745
:10368C0003FF422000F05CF84FF47A7000F004F86D
:10369C0000BF80BD0010014080B485B000AF7860E1
:1036AC00124A7B684FF4FA5101FB03F353600F4B42
:1036BC0000229A600D4B01221A600C4B1B68FB60B8
:1036CC00FB6803F00103002B04D0FB6803F4803388
:1036DC00002BF2D0054B00221A60044B00229A609A
:1036EC0000BF1437BD4680BC704700BF10E000E03F
:1036FC0080B485B000AF7860104A7B68DB00536003
:10370C000E4B00229A600D4B01221A600B4B1B686A
:10371C00FB60FB6803F00103002B04D0FB6803F48F
:10372C008033002BF2D0054B00221A60034B002291
:10373C009A6000BF1437BD4680BC704710E000E0B3
:10374C0080B582B000AF0346FB8000BF80210748E4
:10375C00FFF783FD0346002BF8D0FB88194603487E
:10376C00FFF77AFC00BF0837BD4680BD004400401F
:10377C0080B483B000AF786002E07B68013B7B6073
:10378C007B68002BF9D100BF0C37BD4680BC70475D
:10379C0080B500AFFFF77EFEFFF760FFFCE780B55A
:1037AC0000AFFDF759FB4FF48030FDF791FBFDF7AF
:1037BC00BDFB03461A46184B1A70174B1B78012B8E
:1037CC0028D11020FCF7CCFC0220FCF799FC00203F
:1037DC00FDF758FC0020FDF78DFC4FF48060FDF7E1
:1037EC006DFC4FF4E0114FF48030FDF7F3FB01203A
:1037FC00FDF70EFC00BF3920FDF7ACFE0346002B95
:10380C00F9D00220FDF714FC00BFFDF72DFC034698
:10381C00082BFAD100BF80BD0800002080B500AF96
:10382C0000214FF00060FDF74FF900BF80BD00BFD5
:10383C0080B400AF00BFBD4680BC704780B400AF01
:10384C00FEE780B400AFFEE780B400AFFEE780B4C3
:10385C0000AFFEE780B400AF00BFBD4680BC704730
:10386C0080B400AF00BFBD4680BC704780B400AFD1
:10387C0000BFBD4680BC704780B400AF00BFBD46E2
:10388C0080BC704780B400AF00BFBD4680BC7047A1
:10389C0080B400AF00BFBD4680BC704780B400AFA1
:1038AC0000BFBD4680BC704780B400AF00BFBD46B2
:1038BC0080BC704780B400AF00BFBD4680BC704771
:1038CC0080B400AF00BFBD4680BC704780B400AF71
:1038DC0000BFBD4680BC704780B400AF00BFBD4682
:1038EC0080BC704780B400AF00BFBD4680BC704741
:1038FC0080B400AF00BFBD4680BC704780B400AF41
:10390C0000BFBD4680BC704780B400AF00BFBD4651
:10391C0080BC704780B400AF00BFBD4680BC704710
:10392C0080B400AF00BFBD4680BC704780B400AF10
:10393C0000BFBD4680BC704780B400AF00BFBD4621
:10394C0080BC704780B400AF00BFBD4680BC7047E0
:10395C0080B400AF00BFBD4680BC704780B400AFE0
:10396C0000BFBD4680BC704780B400AF00BFBD46F1
:10397C0080BC704780B400AF00BFBD4680BC7047B0
:10398C0080B400AF00BFBD4680BC704780B400AFB0
:10399C0000BFBD4680BC704780B400AF00BFBD46C1
:1039AC0080BC704780B400AF00BFBD4680BC704780
:1039BC0080B400AF00BFBD4680BC704780B400AF80
:1039CC0000BFBD4680BC704780B400AF00BFBD4691
:1039DC0080BC704780B400AF00BFBD4680BC704750
:1039EC0080B400AF00BFBD4680BC704780B400AF50
:1039FC0000BFBD4680BC704780B400AF00BFBD4661
:103A0C0080BC704780B400AF00BFBD4680BC70471F
:103A1C0080B400AF00BFBD4680BC704780B400AF1F
:103A2C0000BFBD4680BC704780B400AF00BFBD4630
:103A3C0080BC704780B400AF00BFBD4680BC7047EF
:103A4C0080B400AF00BFBD4680BC704780B400AFEF
:103A5C0000BFBD4680BC704780B400AF00BFBD4600
:103A6C0080BC704780B400AF00BFBD4680BC7047BF
:103A7C0080B400AF00BFBD4680BC704780B400AFBF
:103A8C0000BFBD4680BC704700000000010203046B
:103A9C0001020304060708090204060800FFFF00E0
:0C3AAC0000FFFF003133133333313313BC
:043AB800F8B500BF9E
:043ABC00F8B500BF9A
:040000050800010CE2
:00000001FF
